:020000040800F2
:100000006006002049010008BF020008BB0200088A
:1000100000000000000000000000000000000000E0
:10002000000000000000000000000000E5020008E1
:100030000000000000000000C1020008C103000829
:10004000790100080000000079010008790100082A
:100050007901000879010008790100087901000898
:10006000000000007901000879010008790100080A
:1000700079010008790100087901000800000000FA
:10008000790100080000000000000000790100086C
:1000900000000000790100087901000879010008DA
:1000A000000000007901000800000000790100084C
:1000B000790100080000000000000000790100083C
:1000C00000F002F800F030F80CA030C8083824180E
:1000D0002D18A246671EAB4654465D46AC4201D180
:1000E00000F022F87E460F3E0FCCB6460126334282
:1000F00000D0FB1AA246AB46334318477C030000EE
:100100008C0300000023002400250026103A01D3B0
:1001100078C1FBD8520700D330C100D50B607047BF
:100120001FB51FBD10B510BD00F04BF81146FFF70D
:10013000F7FF00F085F900F063F803B4FFF7F2FF72
:1001400003BC00F069F800000F4880F308880F48EE
:100150000168090E0E4A914205D10E480E49016010
:100160000E480F4901600F4880470F480047FEE7DF
:10017000FEE7FEE7FEE7FEE7FEE700000B480C495E
:100180000C4A0D4B70470000600600200400000080
:100190001F00000018100240010000000000014094
:1001A00000000000C5030008C10000086000002036
:1001B0006006002060020020600200207047704747
:1001C0007047754600F024F8AE4605006946534670
:1001D000C008C000854618B020B5FFF7CFFF60BC4F
:1001E00000274908B6460026C0C5C0C5C0C5C0C561
:1001F000C0C5C0C5C0C5C0C5403D49008D4670479B
:1002000010B50446C046C0462046FFF796FF10BD15
:10021000004870470000002001491820ABBEFEE7EF
:10022000260002007047F0B50A4600210023002492
:1002300000BF3DE001258D402B4615681D402C4632
:100240009C4234D11579012D02D01579022D16D199
:1002500085684F000326BE40B543856055794E0042
:10026000B540866835438560858801268E40B54354
:100270008580858896798E40B6B23543858005683D
:100280004F000326BE40B543056015794E00B540CA
:10029000066835430560C5684F000326BE40B54378
:1002A000C560D5794E00B540C6683543C560491C68
:1002B0001029BFD3F0BD0185704700BFFEE770472E
:1002C00070470000002905D0054A52690243044BDB
:1002D0005A6104E0024A52698243014B5A617047F5
:1002E00000100240704700000CB500200190009003
:1002F000314800680121090408432F49086000BF04
:100300002D48006801214904084000900198401CD4
:1003100001900098002804D1052109030198884222
:10032000EED125480068012149040840002802D088
:100330000120009001E0002000900098012839D1B0
:1003400011201E4908601C4840681B494860084647
:1003500040684860084640687F21C90388431649C1
:100360004860084640681121090408431249486062
:10037000084600680121090608430F49086000BFCC
:100380000D4800680121490608400028F8D00A48B5
:10039000406880088000084948600846406802219B
:1003A00008430549486000BF034840680C210840E5
:1003B0000828F9D10CBD00000010024000200240C6
:1003C0007047000010B51B48006801210843194917
:1003D00008600846406818490840164948600846C1
:1003E0000068164908401349086008460068012162
:1003F000890488430F490860084640683F21090482
:1004000088430C4948600846C06A00090001C86278
:100410000846006BFF2154318843064908630846AB
:10042000406B40084000486300208860FFF75CFF95
:1004300010BD0000001002400CB8FF08FFFFF6FEE0
:100440001CB501218804FFF73DFF012168460171B9
:1004500000218171022000900321684641716946A4
:100460000448FFF7E0FE02210248FFF724FF00BF27
:10047000FEE7000000040048880400080000002097
:08048000600600000401000801
:04000005080000C12E
:00000001FF
